{
  "contractName": "Bid",
  "abi": [
    {
      "inputs": [
        {
          "internalType": "string",
          "name": "name",
          "type": "string"
        },
        {
          "internalType": "uint256",
          "name": "targetAmountEth",
          "type": "uint256"
        },
        {
          "internalType": "uint256",
          "name": "durationTime",
          "type": "uint256"
        },
        {
          "internalType": "address payable",
          "name": "participantAdress",
          "type": "address"
        }
      ],
      "stateMutability": "nonpayable",
      "type": "constructor"
    },
    {
      "anonymous": false,
      "inputs": [
        {
          "indexed": false,
          "internalType": "address",
          "name": "addr",
          "type": "address"
        },
        {
          "indexed": false,
          "internalType": "uint256",
          "name": "totalCollected",
          "type": "uint256"
        },
        {
          "indexed": false,
          "internalType": "bool",
          "name": "succeeded",
          "type": "bool"
        }
      ],
      "name": "AuctionFinished",
      "type": "event"
    },
    {
      "inputs": [],
      "name": "REVISION",
      "outputs": [
        {
          "internalType": "uint256",
          "name": "",
          "type": "uint256"
        }
      ],
      "stateMutability": "view",
      "type": "function",
      "constant": true
    },
    {
      "inputs": [
        {
          "internalType": "address",
          "name": "",
          "type": "address"
        }
      ],
      "name": "amounts",
      "outputs": [
        {
          "internalType": "uint256",
          "name": "",
          "type": "uint256"
        }
      ],
      "stateMutability": "view",
      "type": "function",
      "constant": true
    },
    {
      "inputs": [],
      "name": "collected",
      "outputs": [
        {
          "internalType": "bool",
          "name": "",
          "type": "bool"
        }
      ],
      "stateMutability": "view",
      "type": "function",
      "constant": true
    },
    {
      "inputs": [],
      "name": "deadline",
      "outputs": [
        {
          "internalType": "uint256",
          "name": "",
          "type": "uint256"
        }
      ],
      "stateMutability": "view",
      "type": "function",
      "constant": true
    },
    {
      "inputs": [],
      "name": "owner",
      "outputs": [
        {
          "internalType": "address",
          "name": "",
          "type": "address"
        }
      ],
      "stateMutability": "view",
      "type": "function",
      "constant": true
    },
    {
      "inputs": [],
      "name": "participant",
      "outputs": [
        {
          "internalType": "address payable",
          "name": "",
          "type": "address"
        }
      ],
      "stateMutability": "view",
      "type": "function",
      "constant": true
    },
    {
      "inputs": [],
      "name": "state",
      "outputs": [
        {
          "internalType": "enum Bid.State",
          "name": "",
          "type": "uint8"
        }
      ],
      "stateMutability": "view",
      "type": "function",
      "constant": true
    },
    {
      "inputs": [],
      "name": "targetAmount",
      "outputs": [
        {
          "internalType": "uint256",
          "name": "",
          "type": "uint256"
        }
      ],
      "stateMutability": "view",
      "type": "function",
      "constant": true
    },
    {
      "inputs": [],
      "name": "totalCollected",
      "outputs": [
        {
          "internalType": "uint256",
          "name": "",
          "type": "uint256"
        }
      ],
      "stateMutability": "view",
      "type": "function",
      "constant": true
    },
    {
      "inputs": [],
      "name": "contribute",
      "outputs": [],
      "stateMutability": "payable",
      "type": "function",
      "payable": true
    },
    {
      "inputs": [],
      "name": "finishAuction",
      "outputs": [],
      "stateMutability": "nonpayable",
      "type": "function"
    },
    {
      "inputs": [],
      "name": "collect",
      "outputs": [],
      "stateMutability": "nonpayable",
      "type": "function"
    },
    {
      "inputs": [],
      "name": "withdraw",
      "outputs": [],
      "stateMutability": "nonpayable",
      "type": "function"
    },
    {
      "inputs": [],
      "name": "beforeDeadline",
      "outputs": [
        {
          "internalType": "bool",
          "name": "",
          "type": "bool"
        }
      ],
      "stateMutability": "view",
      "type": "function",
      "constant": true
    },
    {
      "inputs": [],
      "name": "getTotalCollected",
      "outputs": [
        {
          "internalType": "uint256",
          "name": "",
          "type": "uint256"
        }
      ],
      "stateMutability": "view",
      "type": "function",
      "constant": true
    },
    {
      "inputs": [],
      "name": "inProgress",
      "outputs": [
        {
          "internalType": "bool",
          "name": "",
          "type": "bool"
        }
      ],
      "stateMutability": "view",
      "type": "function",
      "constant": true
    },
    {
      "inputs": [],
      "name": "isSuccessful",
      "outputs": [
        {
          "internalType": "bool",
          "name": "",
          "type": "bool"
        }
      ],
      "stateMutability": "view",
      "type": "function",
      "constant": true
    },
    {
      "inputs": [
        {
          "internalType": "uint256",
          "name": "sumInEth",
          "type": "uint256"
        }
      ],
      "name": "etherToWai",
      "outputs": [
        {
          "internalType": "uint256",
          "name": "",
          "type": "uint256"
        }
      ],
      "stateMutability": "pure",
      "type": "function",
      "constant": true
    },
    {
      "inputs": [
        {
          "internalType": "uint256",
          "name": "timeInMin",
          "type": "uint256"
        }
      ],
      "name": "minutesToSeconsd",
      "outputs": [
        {
          "internalType": "uint256",
          "name": "",
          "type": "uint256"
        }
      ],
      "stateMutability": "pure",
      "type": "function",
      "constant": true
    }
  ],
  "bytecode": "0x60806040523480156200001157600080fd5b5060405162001a9538038062001a95833981810160405281019062000037919062000307565b83600090805190602001906200004f929190620001b7565b5062000061836200017860201b60201c565b60018190555062000078826200019760201b60201c565b62000088620001af60201b60201c565b620000949190620003eb565b60028190555080600360006101000a81548173ffffffffffffffffffffffffffffffffffffffff021916908373ffffffffffffffffffffffffffffffffffffffff16021790555033600460006101000a81548173ffffffffffffffffffffffffffffffffffffffff021916908373ffffffffffffffffffffffffffffffffffffffff1602179055506000600460146101000a81548160ff0219169083600381111562000169577f4e487b7100000000000000000000000000000000000000000000000000000000600052602160045260246000fd5b0217905550505050506200065b565b6000670de0b6b3a76400008262000190919062000448565b9050919050565b6000603c82620001a8919062000448565b9050919050565b600042905090565b828054620001c5906200051d565b90600052602060002090601f016020900481019282620001e9576000855562000235565b82601f106200020457805160ff191683800117855562000235565b8280016001018555821562000235579182015b828111156200023457825182559160200191906001019062000217565b5b50905062000244919062000248565b5090565b5b808211156200026357600081600090555060010162000249565b5090565b60006200027e6200027884620003b5565b6200038c565b9050828152602081018484840111156200029757600080fd5b620002a4848285620004e7565b509392505050565b600081519050620002bd8162000627565b92915050565b600082601f830112620002d557600080fd5b8151620002e784826020860162000267565b91505092915050565b600081519050620003018162000641565b92915050565b600080600080608085870312156200031e57600080fd5b600085015167ffffffffffffffff8111156200033957600080fd5b6200034787828801620002c3565b94505060206200035a87828801620002f0565b93505060406200036d87828801620002f0565b92505060606200038087828801620002ac565b91505092959194509250565b600062000398620003ab565b9050620003a6828262000553565b919050565b6000604051905090565b600067ffffffffffffffff821115620003d357620003d2620005e7565b5b620003de8262000616565b9050602081019050919050565b6000620003f882620004dd565b91506200040583620004dd565b9250827fffffffffffffffffffffffffffffffffffffffffffffffffffffffffffffffff038211156200043d576200043c62000589565b5b828201905092915050565b60006200045582620004dd565b91506200046283620004dd565b9250817fffffffffffffffffffffffffffffffffffffffffffffffffffffffffffffffff04831182151516156200049e576200049d62000589565b5b828202905092915050565b6000620004b682620004bd565b9050919050565b600073ffffffffffffffffffffffffffffffffffffffff82169050919050565b6000819050919050565b60005b8381101562000507578082015181840152602081019050620004ea565b8381111562000517576000848401525b50505050565b600060028204905060018216806200053657607f821691505b602082108114156200054d576200054c620005b8565b5b50919050565b6200055e8262000616565b810181811067ffffffffffffffff8211171562000580576200057f620005e7565b5b80604052505050565b7f4e487b7100000000000000000000000000000000000000000000000000000000600052601160045260246000fd5b7f4e487b7100000000000000000000000000000000000000000000000000000000600052602260045260246000fd5b7f4e487b7100000000000000000000000000000000000000000000000000000000600052604160045260246000fd5b6000601f19601f8301169050919050565b6200063281620004a9565b81146200063e57600080fd5b50565b6200064c81620004dd565b81146200065857600080fd5b50565b61142a806200066b6000396000f3fe6080604052600436106101145760003560e01c80638da5cb5b116100a0578063dde43cba11610064578063dde43cba14610360578063e29eb8361461038b578063e5225381146103b6578063ec4cd0cf146103cd578063fbe5d87e146103f857610114565b80638da5cb5b14610298578063953b8fb8146102c3578063c19d93fb146102ee578063d5590af614610319578063d7bb99ba1461035657610114565b8063430ca46f116100e7578063430ca46f146101c357806355a3b2c1146101da57806368bc00411461021757806384bcefd414610242578063873518131461026d57610114565b80630ee8d3a11461011957806329dcb0cf1461015657806337a6d42b146101815780633ccfd60b146101ac575b600080fd5b34801561012557600080fd5b50610140600480360381019061013b9190610ee6565b610423565b60405161014d9190611109565b60405180910390f35b34801561016257600080fd5b5061016b610439565b6040516101789190611109565b60405180910390f35b34801561018d57600080fd5b5061019661043f565b6040516101a39190611001565b60405180910390f35b3480156101b857600080fd5b506101c1610465565b005b3480156101cf57600080fd5b506101d86106bb565b005b3480156101e657600080fd5b5061020160048036038101906101fc9190610ebd565b6108d1565b60405161020e9190611109565b60405180910390f35b34801561022357600080fd5b5061022c6108e9565b6040516102399190611053565b60405180910390f35b34801561024e57600080fd5b506102576108fc565b6040516102649190611053565b60405180910390f35b34801561027957600080fd5b5061028261090f565b60405161028f9190611053565b60405180910390f35b3480156102a457600080fd5b506102ad610a22565b6040516102ba9190610fe6565b60405180910390f35b3480156102cf57600080fd5b506102d8610a48565b6040516102e59190611109565b60405180910390f35b3480156102fa57600080fd5b50610303610a4e565b604051610310919061106e565b60405180910390f35b34801561032557600080fd5b50610340600480360381019061033b9190610ee6565b610a61565b60405161034d9190611109565b60405180910390f35b61035e610a7e565b005b34801561036c57600080fd5b50610375610c21565b6040516103829190611109565b60405180910390f35b34801561039757600080fd5b506103a0610c26565b6040516103ad9190611109565b60405180910390f35b3480156103c257600080fd5b506103cb610c2c565b005b3480156103d957600080fd5b506103e2610df8565b6040516103ef9190611053565b60405180910390f35b34801561040457600080fd5b5061040d610e81565b60405161041a9190611109565b60405180910390f35b6000603c82610432919061118b565b9050919050565b60025481565b600360009054906101000a900473ffffffffffffffffffffffffffffffffffffffff1681565b60018060038111156104a0577f4e487b7100000000000000000000000000000000000000000000000000000000600052602160045260246000fd5b600460149054906101000a900460ff1660038111156104e8577f4e487b7100000000000000000000000000000000000000000000000000000000600052602160045260246000fd5b14610528576040517f08c379a000000000000000000000000000000000000000000000000000000000815260040161051f906110e9565b60405180910390fd5b6000600560003373ffffffffffffffffffffffffffffffffffffffff1673ffffffffffffffffffffffffffffffffffffffff16815260200190815260200160002054116105aa576040517f08c379a00000000000000000000000000000000000000000000000000000000081526004016105a190611089565b60405180910390fd5b6000600560003373ffffffffffffffffffffffffffffffffffffffff1673ffffffffffffffffffffffffffffffffffffffff1681526020019081526020016000205490506000600560003373ffffffffffffffffffffffffffffffffffffffff1673ffffffffffffffffffffffffffffffffffffffff1681526020019081526020016000208190555060003390508073ffffffffffffffffffffffffffffffffffffffff166108fc839081150290604051600060405180830381858888f193505050506106b65781600560008373ffffffffffffffffffffffffffffffffffffffff1673ffffffffffffffffffffffffffffffffffffffff168152602001908152602001600020819055505b505050565b60008060038111156106f6577f4e487b7100000000000000000000000000000000000000000000000000000000600052602160045260246000fd5b600460149054906101000a900460ff16600381111561073e577f4e487b7100000000000000000000000000000000000000000000000000000000600052602160045260246000fd5b1461077e576040517f08c379a0000000000000000000000000000000000000000000000000000000008152600401610775906110e9565b60405180910390fd5b6107866108e9565b156107c6576040517f08c379a00000000000000000000000000000000000000000000000000000000081526004016107bd906110c9565b60405180910390fd5b600660009054906101000a900460ff16610830576001600460146101000a81548160ff02191690836003811115610826577f4e487b7100000000000000000000000000000000000000000000000000000000600052602160045260246000fd5b0217905550610882565b6002600460146101000a81548160ff0219169083600381111561087c577f4e487b7100000000000000000000000000000000000000000000000000000000600052602160045260246000fd5b02179055505b7f236d5677e6ff750148b321678c86818d1c753934fc881581103107776b75d89730600754600660009054906101000a900460ff166040516108c69392919061101c565b60405180910390a150565b60056020528060005260406000206000915090505481565b60006002546108f6610e8b565b10905090565b600660009054906101000a900460ff1681565b600080600381111561094a577f4e487b7100000000000000000000000000000000000000000000000000000000600052602160045260246000fd5b600460149054906101000a900460ff166003811115610992577f4e487b7100000000000000000000000000000000000000000000000000000000600052602160045260246000fd5b1480610a1d5750600260038111156109d3577f4e487b7100000000000000000000000000000000000000000000000000000000600052602160045260246000fd5b600460149054906101000a900460ff166003811115610a1b577f4e487b7100000000000000000000000000000000000000000000000000000000600052602160045260246000fd5b145b905090565b600460009054906101000a900473ffffffffffffffffffffffffffffffffffffffff1681565b60015481565b600460149054906101000a900460ff1681565b6000670de0b6b3a764000082610a77919061118b565b9050919050565b6000806003811115610ab9577f4e487b7100000000000000000000000000000000000000000000000000000000600052602160045260246000fd5b600460149054906101000a900460ff166003811115610b01577f4e487b7100000000000000000000000000000000000000000000000000000000600052602160045260246000fd5b14610b41576040517f08c379a0000000000000000000000000000000000000000000000000000000008152600401610b38906110e9565b60405180910390fd5b610b496108e9565b610b88576040517f08c379a0000000000000000000000000000000000000000000000000000000008152600401610b7f906110a9565b60405180910390fd5b34600560003373ffffffffffffffffffffffffffffffffffffffff1673ffffffffffffffffffffffffffffffffffffffff1681526020019081526020016000206000828254610bd79190611135565b925050819055503460076000828254610bf09190611135565b9250508190555060015460075410610c1e576001600660006101000a81548160ff0219169083151502179055505b50565b600181565b60075481565b6002806003811115610c67577f4e487b7100000000000000000000000000000000000000000000000000000000600052602160045260246000fd5b600460149054906101000a900460ff166003811115610caf577f4e487b7100000000000000000000000000000000000000000000000000000000600052602160045260246000fd5b14610cef576040517f08c379a0000000000000000000000000000000000000000000000000000000008152600401610ce6906110e9565b60405180910390fd5b600360009054906101000a900473ffffffffffffffffffffffffffffffffffffffff1673ffffffffffffffffffffffffffffffffffffffff166108fc6007549081150290604051600060405180830381858888f1935050505015610da3576003600460146101000a81548160ff02191690836003811115610d99577f4e487b7100000000000000000000000000000000000000000000000000000000600052602160045260246000fd5b0217905550610df5565b6001600460146101000a81548160ff02191690836003811115610def577f4e487b7100000000000000000000000000000000000000000000000000000000600052602160045260246000fd5b02179055505b50565b6000600380811115610e33577f4e487b7100000000000000000000000000000000000000000000000000000000600052602160045260246000fd5b600460149054906101000a900460ff166003811115610e7b577f4e487b7100000000000000000000000000000000000000000000000000000000600052602160045260246000fd5b14905090565b6000600754905090565b600042905090565b600081359050610ea2816113c6565b92915050565b600081359050610eb7816113dd565b92915050565b600060208284031215610ecf57600080fd5b6000610edd84828501610e93565b91505092915050565b600060208284031215610ef857600080fd5b6000610f0684828501610ea8565b91505092915050565b610f18816111f7565b82525050565b610f27816111e5565b82525050565b610f3681611209565b82525050565b610f4581611252565b82525050565b6000610f58601483611124565b9150610f63826112c2565b602082019050919050565b6000610f7b602b83611124565b9150610f86826112eb565b604082019050919050565b6000610f9e603683611124565b9150610fa98261133a565b604082019050919050565b6000610fc1600d83611124565b9150610fcc82611389565b602082019050919050565b610fe081611248565b82525050565b6000602082019050610ffb6000830184610f1e565b92915050565b60006020820190506110166000830184610f0f565b92915050565b60006060820190506110316000830186610f1e565b61103e6020830185610fd7565b61104b6040830184610f2d565b949350505050565b60006020820190506110686000830184610f2d565b92915050565b60006020820190506110836000830184610f3c565b92915050565b600060208201905081810360008301526110a281610f4b565b9050919050565b600060208201905081810360008301526110c281610f6e565b9050919050565b600060208201905081810360008301526110e281610f91565b9050919050565b6000602082019050818103600083015261110281610fb4565b9050919050565b600060208201905061111e6000830184610fd7565b92915050565b600082825260208201905092915050565b600061114082611248565b915061114b83611248565b9250827fffffffffffffffffffffffffffffffffffffffffffffffffffffffffffffffff038211156111805761117f611264565b5b828201905092915050565b600061119682611248565b91506111a183611248565b9250817fffffffffffffffffffffffffffffffffffffffffffffffffffffffffffffffff04831182151516156111da576111d9611264565b5b828202905092915050565b60006111f082611228565b9050919050565b600061120282611228565b9050919050565b60008115159050919050565b6000819050611223826113b2565b919050565b600073ffffffffffffffffffffffffffffffffffffffff82169050919050565b6000819050919050565b600061125d82611215565b9050919050565b7f4e487b7100000000000000000000000000000000000000000000000000000000600052601160045260246000fd5b7f4e487b7100000000000000000000000000000000000000000000000000000000600052602160045260246000fd5b7f416e796f6e65206269642077617320646f6e652e000000000000000000000000600082015250565b7f4e6f74206973207065726d697373696f6e65642062696473206166746572207460008201527f686520646561646c696e65000000000000000000000000000000000000000000602082015250565b7f4e6f7420697320706f737369626c652066696e6973682074686520617563746960008201527f6f6e206265666f72652074686520646561646c696e6500000000000000000000602082015250565b7f496e76616c696420537461746500000000000000000000000000000000000000600082015250565b600481106113c3576113c2611293565b5b50565b6113cf816111e5565b81146113da57600080fd5b50565b6113e681611248565b81146113f157600080fd5b5056fea26469706673582212203c97ecb60b4e8620bba46087839a4967090dae967cc317b8012bbd49640cf1be64736f6c63430008030033",
  "immutableReferences": {},
  "source": "// SPDX-License-Identifier: MIT\npragma solidity ^0.8.3;\n\ncontract Bid {\n  enum State { Progress, Fail, Success, Paid }\n\n  event AuctionFinished(\n        address addr,\n        uint totalCollected,\n        bool succeeded\n  );\n  string internal constant NAME = 'Bid Token';\n  string internal constant SYMBOL = 'Bid';\n  uint8 internal constant DECIMALS = 18;\n\n  uint256 public constant REVISION = 1;\n\n  string contractName;\n  uint public targetAmount;\n  uint public deadline;\n  address payable public participant;\n  address public owner;\n  State public state;\n\n  mapping(address => uint) public amounts;\n  bool public collected;\n  uint public totalCollected;  \n  \n  modifier inState(State expectedState) {\n    require(state == expectedState, \"Invalid State\");\n    _;\n  }\n\n  constructor (\n    string memory name,\n    uint targetAmountEth,\n    uint durationTime,\n    address payable participantAdress\n    ) {\n\n    contractName = name;\n    targetAmount = etherToWai(targetAmountEth);\n    deadline = currentTime() +  minutesToSeconsd(durationTime );\n    participant =  participantAdress;\n    owner = msg.sender;\n    state = State.Progress;\n  }\n\n   function contribute() public payable inState(State.Progress) {\n        require(beforeDeadline(), \"Not is permissioned bids after the deadline\");\n        amounts[msg.sender] += msg.value;\n        totalCollected += msg.value;\n\n        if (totalCollected >= targetAmount) {\n            collected = true;\n        }\n    }\n\n  function finishAuction() public inState(State.Progress) {\n        require(!beforeDeadline(), \"Not is possible finish the auction before the deadline\");\n\n        if (!collected) {\n            state = State.Fail;\n        } else {\n            state = State.Success;\n        }\n\n        emit AuctionFinished(address(this), totalCollected, collected);\n    }\n\n    function collect() public inState(State.Success) {\n        if (participant.send(totalCollected)) {\n            state = State.Paid;\n        } else {\n            state = State.Fail;\n        }\n    }\n\n    function withdraw() public inState(State.Fail) {\n        require(amounts[msg.sender] > 0, \"Anyone bid was done.\");\n        uint contributed = amounts[msg.sender];\n        amounts[msg.sender] = 0;\n        address payable addr1 = payable(msg.sender);\n        if (!addr1.send(contributed)) {\n            amounts[addr1] = contributed;\n        }\n    }\n\n\n    function beforeDeadline() public view returns(bool) {\n        return currentTime() < deadline;\n    }\n\n    function currentTime() internal view virtual returns(uint) {\n        return block.timestamp;\n    }\n\n    function getTotalCollected() public view returns(uint) {\n        return totalCollected;\n    }\n\n    function inProgress() public view returns (bool) {\n        return state == State.Progress || state == State.Success;\n    }\n\n    function isSuccessful() public view returns (bool) {\n        return state == State.Paid;\n    }\n\n     function etherToWai(uint sumInEth) public pure returns(uint)  {\n    return sumInEth * 1 ether;\n    }\n\n    function minutesToSeconsd(uint timeInMin) public pure returns(uint)  {\n      return timeInMin * 1 minutes;\n    }\n}\n",
  "sourcePath": "D:/projetos/projetos/bid token/contracts/Bid.sol",
  "compiler": {
    "name": "solc",
    "version": "0.8.3+commit.8d00100c.Emscripten.clang"
  },
  "schemaVersion": "3.3.4",
  "updatedAt": "2021-05-05T22:04:52.835Z",
  "networkType": "ethereum",
  "devdoc": {
    "kind": "dev",
    "methods": {},
    "version": 1
  },
  "userdoc": {
    "kind": "user",
    "methods": {},
    "version": 1
  }
}