{
  "contractName": "TestAuction",
  "abi": [
    {
      "inputs": [
        {
          "internalType": "string",
          "name": "contractName",
          "type": "string"
        },
        {
          "internalType": "uint256",
          "name": "targetAmountEth",
          "type": "uint256"
        },
        {
          "internalType": "uint256",
          "name": "durationInMin",
          "type": "uint256"
        },
        {
          "internalType": "address payable",
          "name": "beneficiaryAddress",
          "type": "address"
        }
      ],
      "stateMutability": "nonpayable",
      "type": "constructor"
    },
    {
      "anonymous": false,
      "inputs": [
        {
          "indexed": false,
          "internalType": "address",
          "name": "addr",
          "type": "address"
        },
        {
          "indexed": false,
          "internalType": "uint256",
          "name": "totalCollected",
          "type": "uint256"
        },
        {
          "indexed": false,
          "internalType": "bool",
          "name": "succeeded",
          "type": "bool"
        }
      ],
      "name": "AuctionFinished",
      "type": "event"
    },
    {
      "inputs": [],
      "name": "REVISION",
      "outputs": [
        {
          "internalType": "uint256",
          "name": "",
          "type": "uint256"
        }
      ],
      "stateMutability": "view",
      "type": "function"
    },
    {
      "inputs": [
        {
          "internalType": "address",
          "name": "",
          "type": "address"
        }
      ],
      "name": "amounts",
      "outputs": [
        {
          "internalType": "uint256",
          "name": "",
          "type": "uint256"
        }
      ],
      "stateMutability": "view",
      "type": "function"
    },
    {
      "inputs": [],
      "name": "beforeDeadline",
      "outputs": [
        {
          "internalType": "bool",
          "name": "",
          "type": "bool"
        }
      ],
      "stateMutability": "view",
      "type": "function"
    },
    {
      "inputs": [],
      "name": "collect",
      "outputs": [],
      "stateMutability": "nonpayable",
      "type": "function"
    },
    {
      "inputs": [],
      "name": "collected",
      "outputs": [
        {
          "internalType": "bool",
          "name": "",
          "type": "bool"
        }
      ],
      "stateMutability": "view",
      "type": "function"
    },
    {
      "inputs": [],
      "name": "contribute",
      "outputs": [],
      "stateMutability": "payable",
      "type": "function"
    },
    {
      "inputs": [],
      "name": "deadline",
      "outputs": [
        {
          "internalType": "uint256",
          "name": "",
          "type": "uint256"
        }
      ],
      "stateMutability": "view",
      "type": "function"
    },
    {
      "inputs": [
        {
          "internalType": "uint256",
          "name": "sumInEth",
          "type": "uint256"
        }
      ],
      "name": "etherToWai",
      "outputs": [
        {
          "internalType": "uint256",
          "name": "",
          "type": "uint256"
        }
      ],
      "stateMutability": "pure",
      "type": "function"
    },
    {
      "inputs": [],
      "name": "finishAuction",
      "outputs": [],
      "stateMutability": "nonpayable",
      "type": "function"
    },
    {
      "inputs": [],
      "name": "getTotalCollected",
      "outputs": [
        {
          "internalType": "uint256",
          "name": "",
          "type": "uint256"
        }
      ],
      "stateMutability": "view",
      "type": "function"
    },
    {
      "inputs": [],
      "name": "inProgress",
      "outputs": [
        {
          "internalType": "bool",
          "name": "",
          "type": "bool"
        }
      ],
      "stateMutability": "view",
      "type": "function"
    },
    {
      "inputs": [],
      "name": "isSuccessful",
      "outputs": [
        {
          "internalType": "bool",
          "name": "",
          "type": "bool"
        }
      ],
      "stateMutability": "view",
      "type": "function"
    },
    {
      "inputs": [
        {
          "internalType": "uint256",
          "name": "timeInMin",
          "type": "uint256"
        }
      ],
      "name": "minutesToSeconsd",
      "outputs": [
        {
          "internalType": "uint256",
          "name": "",
          "type": "uint256"
        }
      ],
      "stateMutability": "pure",
      "type": "function"
    },
    {
      "inputs": [],
      "name": "owner",
      "outputs": [
        {
          "internalType": "address",
          "name": "",
          "type": "address"
        }
      ],
      "stateMutability": "view",
      "type": "function"
    },
    {
      "inputs": [],
      "name": "participant",
      "outputs": [
        {
          "internalType": "address payable",
          "name": "",
          "type": "address"
        }
      ],
      "stateMutability": "view",
      "type": "function"
    },
    {
      "inputs": [],
      "name": "state",
      "outputs": [
        {
          "internalType": "enum Bid.State",
          "name": "",
          "type": "uint8"
        }
      ],
      "stateMutability": "view",
      "type": "function"
    },
    {
      "inputs": [],
      "name": "targetAmount",
      "outputs": [
        {
          "internalType": "uint256",
          "name": "",
          "type": "uint256"
        }
      ],
      "stateMutability": "view",
      "type": "function"
    },
    {
      "inputs": [],
      "name": "totalCollected",
      "outputs": [
        {
          "internalType": "uint256",
          "name": "",
          "type": "uint256"
        }
      ],
      "stateMutability": "view",
      "type": "function"
    },
    {
      "inputs": [],
      "name": "withdraw",
      "outputs": [],
      "stateMutability": "nonpayable",
      "type": "function"
    },
    {
      "inputs": [
        {
          "internalType": "uint256",
          "name": "newTime",
          "type": "uint256"
        }
      ],
      "name": "setCurrentTime",
      "outputs": [],
      "stateMutability": "nonpayable",
      "type": "function"
    }
  ],
  "bytecode": "0x60806040523480156200001157600080fd5b5060405162001adf38038062001adf833981810160405281019062000037919062000311565b83838383836000908051906020019062000053929190620001c1565b5062000065836200018060201b60201c565b6001819055506200007c826200019f60201b60201c565b6200008c620001b760201b60201c565b620000989190620003f5565b60028190555080600360006101000a81548173ffffffffffffffffffffffffffffffffffffffff021916908373ffffffffffffffffffffffffffffffffffffffff16021790555033600460006101000a81548173ffffffffffffffffffffffffffffffffffffffff021916908373ffffffffffffffffffffffffffffffffffffffff1602179055506000600460146101000a81548160ff021916908360038111156200016d577f4e487b7100000000000000000000000000000000000000000000000000000000600052602160045260246000fd5b0217905550505050505050505062000665565b6000670de0b6b3a76400008262000198919062000452565b9050919050565b6000603c82620001b0919062000452565b9050919050565b6000600854905090565b828054620001cf9062000527565b90600052602060002090601f016020900481019282620001f357600085556200023f565b82601f106200020e57805160ff19168380011785556200023f565b828001600101855582156200023f579182015b828111156200023e57825182559160200191906001019062000221565b5b5090506200024e919062000252565b5090565b5b808211156200026d57600081600090555060010162000253565b5090565b6000620002886200028284620003bf565b62000396565b905082815260208101848484011115620002a157600080fd5b620002ae848285620004f1565b509392505050565b600081519050620002c78162000631565b92915050565b600082601f830112620002df57600080fd5b8151620002f184826020860162000271565b91505092915050565b6000815190506200030b816200064b565b92915050565b600080600080608085870312156200032857600080fd5b600085015167ffffffffffffffff8111156200034357600080fd5b6200035187828801620002cd565b94505060206200036487828801620002fa565b93505060406200037787828801620002fa565b92505060606200038a87828801620002b6565b91505092959194509250565b6000620003a2620003b5565b9050620003b082826200055d565b919050565b6000604051905090565b600067ffffffffffffffff821115620003dd57620003dc620005f1565b5b620003e88262000620565b9050602081019050919050565b60006200040282620004e7565b91506200040f83620004e7565b9250827fffffffffffffffffffffffffffffffffffffffffffffffffffffffffffffffff0382111562000447576200044662000593565b5b828201905092915050565b60006200045f82620004e7565b91506200046c83620004e7565b9250817fffffffffffffffffffffffffffffffffffffffffffffffffffffffffffffffff0483118215151615620004a857620004a762000593565b5b828202905092915050565b6000620004c082620004c7565b9050919050565b600073ffffffffffffffffffffffffffffffffffffffff82169050919050565b6000819050919050565b60005b8381101562000511578082015181840152602081019050620004f4565b8381111562000521576000848401525b50505050565b600060028204905060018216806200054057607f821691505b60208210811415620005575762000556620005c2565b5b50919050565b620005688262000620565b810181811067ffffffffffffffff821117156200058a5762000589620005f1565b5b80604052505050565b7f4e487b7100000000000000000000000000000000000000000000000000000000600052601160045260246000fd5b7f4e487b7100000000000000000000000000000000000000000000000000000000600052602260045260246000fd5b7f4e487b7100000000000000000000000000000000000000000000000000000000600052604160045260246000fd5b6000601f19601f8301169050919050565b6200063c81620004b3565b81146200064857600080fd5b50565b6200065681620004e7565b81146200066257600080fd5b50565b61146a80620006756000396000f3fe60806040526004361061011f5760003560e01c80638da5cb5b116100a0578063dde43cba11610064578063dde43cba14610394578063e29eb836146103bf578063e5225381146103ea578063ec4cd0cf14610401578063fbe5d87e1461042c5761011f565b80638da5cb5b146102cc578063953b8fb8146102f7578063c19d93fb14610322578063d5590af61461034d578063d7bb99ba1461038a5761011f565b8063430ca46f116100e7578063430ca46f146101f757806355a3b2c11461020e57806368bc00411461024b57806384bcefd41461027657806387351813146102a15761011f565b80630ee8d3a11461012457806322f8e5661461016157806329dcb0cf1461018a57806337a6d42b146101b55780633ccfd60b146101e0575b600080fd5b34801561013057600080fd5b5061014b60048036038101906101469190610f26565b610457565b6040516101589190611149565b60405180910390f35b34801561016d57600080fd5b5061018860048036038101906101839190610f26565b61046d565b005b34801561019657600080fd5b5061019f610477565b6040516101ac9190611149565b60405180910390f35b3480156101c157600080fd5b506101ca61047d565b6040516101d79190611041565b60405180910390f35b3480156101ec57600080fd5b506101f56104a3565b005b34801561020357600080fd5b5061020c6106f9565b005b34801561021a57600080fd5b5061023560048036038101906102309190610efd565b61090f565b6040516102429190611149565b60405180910390f35b34801561025757600080fd5b50610260610927565b60405161026d9190611093565b60405180910390f35b34801561028257600080fd5b5061028b61093a565b6040516102989190611093565b60405180910390f35b3480156102ad57600080fd5b506102b661094d565b6040516102c39190611093565b60405180910390f35b3480156102d857600080fd5b506102e1610a60565b6040516102ee9190611026565b60405180910390f35b34801561030357600080fd5b5061030c610a86565b6040516103199190611149565b60405180910390f35b34801561032e57600080fd5b50610337610a8c565b60405161034491906110ae565b60405180910390f35b34801561035957600080fd5b50610374600480360381019061036f9190610f26565b610a9f565b6040516103819190611149565b60405180910390f35b610392610abc565b005b3480156103a057600080fd5b506103a9610c5f565b6040516103b69190611149565b60405180910390f35b3480156103cb57600080fd5b506103d4610c64565b6040516103e19190611149565b60405180910390f35b3480156103f657600080fd5b506103ff610c6a565b005b34801561040d57600080fd5b50610416610e36565b6040516104239190611093565b60405180910390f35b34801561043857600080fd5b50610441610ebf565b60405161044e9190611149565b60405180910390f35b6000603c8261046691906111cb565b9050919050565b8060088190555050565b60025481565b600360009054906101000a900473ffffffffffffffffffffffffffffffffffffffff1681565b60018060038111156104de577f4e487b7100000000000000000000000000000000000000000000000000000000600052602160045260246000fd5b600460149054906101000a900460ff166003811115610526577f4e487b7100000000000000000000000000000000000000000000000000000000600052602160045260246000fd5b14610566576040517f08c379a000000000000000000000000000000000000000000000000000000000815260040161055d90611129565b60405180910390fd5b6000600560003373ffffffffffffffffffffffffffffffffffffffff1673ffffffffffffffffffffffffffffffffffffffff16815260200190815260200160002054116105e8576040517f08c379a00000000000000000000000000000000000000000000000000000000081526004016105df906110c9565b60405180910390fd5b6000600560003373ffffffffffffffffffffffffffffffffffffffff1673ffffffffffffffffffffffffffffffffffffffff1681526020019081526020016000205490506000600560003373ffffffffffffffffffffffffffffffffffffffff1673ffffffffffffffffffffffffffffffffffffffff1681526020019081526020016000208190555060003390508073ffffffffffffffffffffffffffffffffffffffff166108fc839081150290604051600060405180830381858888f193505050506106f45781600560008373ffffffffffffffffffffffffffffffffffffffff1673ffffffffffffffffffffffffffffffffffffffff168152602001908152602001600020819055505b505050565b6000806003811115610734577f4e487b7100000000000000000000000000000000000000000000000000000000600052602160045260246000fd5b600460149054906101000a900460ff16600381111561077c577f4e487b7100000000000000000000000000000000000000000000000000000000600052602160045260246000fd5b146107bc576040517f08c379a00000000000000000000000000000000000000000000000000000000081526004016107b390611129565b60405180910390fd5b6107c4610927565b15610804576040517f08c379a00000000000000000000000000000000000000000000000000000000081526004016107fb90611109565b60405180910390fd5b600660009054906101000a900460ff1661086e576001600460146101000a81548160ff02191690836003811115610864577f4e487b7100000000000000000000000000000000000000000000000000000000600052602160045260246000fd5b02179055506108c0565b6002600460146101000a81548160ff021916908360038111156108ba577f4e487b7100000000000000000000000000000000000000000000000000000000600052602160045260246000fd5b02179055505b7f236d5677e6ff750148b321678c86818d1c753934fc881581103107776b75d89730600754600660009054906101000a900460ff166040516109049392919061105c565b60405180910390a150565b60056020528060005260406000206000915090505481565b6000600254610934610ec9565b10905090565b600660009054906101000a900460ff1681565b6000806003811115610988577f4e487b7100000000000000000000000000000000000000000000000000000000600052602160045260246000fd5b600460149054906101000a900460ff1660038111156109d0577f4e487b7100000000000000000000000000000000000000000000000000000000600052602160045260246000fd5b1480610a5b575060026003811115610a11577f4e487b7100000000000000000000000000000000000000000000000000000000600052602160045260246000fd5b600460149054906101000a900460ff166003811115610a59577f4e487b7100000000000000000000000000000000000000000000000000000000600052602160045260246000fd5b145b905090565b600460009054906101000a900473ffffffffffffffffffffffffffffffffffffffff1681565b60015481565b600460149054906101000a900460ff1681565b6000670de0b6b3a764000082610ab591906111cb565b9050919050565b6000806003811115610af7577f4e487b7100000000000000000000000000000000000000000000000000000000600052602160045260246000fd5b600460149054906101000a900460ff166003811115610b3f577f4e487b7100000000000000000000000000000000000000000000000000000000600052602160045260246000fd5b14610b7f576040517f08c379a0000000000000000000000000000000000000000000000000000000008152600401610b7690611129565b60405180910390fd5b610b87610927565b610bc6576040517f08c379a0000000000000000000000000000000000000000000000000000000008152600401610bbd906110e9565b60405180910390fd5b34600560003373ffffffffffffffffffffffffffffffffffffffff1673ffffffffffffffffffffffffffffffffffffffff1681526020019081526020016000206000828254610c159190611175565b925050819055503460076000828254610c2e9190611175565b9250508190555060015460075410610c5c576001600660006101000a81548160ff0219169083151502179055505b50565b600181565b60075481565b6002806003811115610ca5577f4e487b7100000000000000000000000000000000000000000000000000000000600052602160045260246000fd5b600460149054906101000a900460ff166003811115610ced577f4e487b7100000000000000000000000000000000000000000000000000000000600052602160045260246000fd5b14610d2d576040517f08c379a0000000000000000000000000000000000000000000000000000000008152600401610d2490611129565b60405180910390fd5b600360009054906101000a900473ffffffffffffffffffffffffffffffffffffffff1673ffffffffffffffffffffffffffffffffffffffff166108fc6007549081150290604051600060405180830381858888f1935050505015610de1576003600460146101000a81548160ff02191690836003811115610dd7577f4e487b7100000000000000000000000000000000000000000000000000000000600052602160045260246000fd5b0217905550610e33565b6001600460146101000a81548160ff02191690836003811115610e2d577f4e487b7100000000000000000000000000000000000000000000000000000000600052602160045260246000fd5b02179055505b50565b6000600380811115610e71577f4e487b7100000000000000000000000000000000000000000000000000000000600052602160045260246000fd5b600460149054906101000a900460ff166003811115610eb9577f4e487b7100000000000000000000000000000000000000000000000000000000600052602160045260246000fd5b14905090565b6000600754905090565b6000600854905090565b600081359050610ee281611406565b92915050565b600081359050610ef78161141d565b92915050565b600060208284031215610f0f57600080fd5b6000610f1d84828501610ed3565b91505092915050565b600060208284031215610f3857600080fd5b6000610f4684828501610ee8565b91505092915050565b610f5881611237565b82525050565b610f6781611225565b82525050565b610f7681611249565b82525050565b610f8581611292565b82525050565b6000610f98601483611164565b9150610fa382611302565b602082019050919050565b6000610fbb602b83611164565b9150610fc68261132b565b604082019050919050565b6000610fde603683611164565b9150610fe98261137a565b604082019050919050565b6000611001600d83611164565b915061100c826113c9565b602082019050919050565b61102081611288565b82525050565b600060208201905061103b6000830184610f5e565b92915050565b60006020820190506110566000830184610f4f565b92915050565b60006060820190506110716000830186610f5e565b61107e6020830185611017565b61108b6040830184610f6d565b949350505050565b60006020820190506110a86000830184610f6d565b92915050565b60006020820190506110c36000830184610f7c565b92915050565b600060208201905081810360008301526110e281610f8b565b9050919050565b6000602082019050818103600083015261110281610fae565b9050919050565b6000602082019050818103600083015261112281610fd1565b9050919050565b6000602082019050818103600083015261114281610ff4565b9050919050565b600060208201905061115e6000830184611017565b92915050565b600082825260208201905092915050565b600061118082611288565b915061118b83611288565b9250827fffffffffffffffffffffffffffffffffffffffffffffffffffffffffffffffff038211156111c0576111bf6112a4565b5b828201905092915050565b60006111d682611288565b91506111e183611288565b9250817fffffffffffffffffffffffffffffffffffffffffffffffffffffffffffffffff048311821515161561121a576112196112a4565b5b828202905092915050565b600061123082611268565b9050919050565b600061124282611268565b9050919050565b60008115159050919050565b6000819050611263826113f2565b919050565b600073ffffffffffffffffffffffffffffffffffffffff82169050919050565b6000819050919050565b600061129d82611255565b9050919050565b7f4e487b7100000000000000000000000000000000000000000000000000000000600052601160045260246000fd5b7f4e487b7100000000000000000000000000000000000000000000000000000000600052602160045260246000fd5b7f416e796f6e65206269642077617320646f6e652e000000000000000000000000600082015250565b7f4e6f74206973207065726d697373696f6e65642062696473206166746572207460008201527f686520646561646c696e65000000000000000000000000000000000000000000602082015250565b7f4e6f7420697320706f737369626c652066696e6973682074686520617563746960008201527f6f6e206265666f72652074686520646561646c696e6500000000000000000000602082015250565b7f496e76616c696420537461746500000000000000000000000000000000000000600082015250565b60048110611403576114026112d3565b5b50565b61140f81611225565b811461141a57600080fd5b50565b61142681611288565b811461143157600080fd5b5056fea26469706673582212208b23d8fa4a69def53ccb4498c7b2c6822c0f339871e1f0e4b450db6b3daab3f764736f6c63430008030033",
  "immutableReferences": {},
  "source": "// SPDX-License-Identifier: MIT\npragma solidity ^0.8.3;\nimport \"./Bid.sol\";\n\ncontract TestAuction is Bid {\n    uint time;\n\n    constructor(\n        string memory contractName,\n        uint targetAmountEth,\n        uint durationInMin,\n        address payable beneficiaryAddress\n    )\n        Bid(contractName, targetAmountEth, durationInMin, beneficiaryAddress)\n    {\n\n    }\n\n    function currentTime() override internal view returns(uint) {\n        return time;\n    }\n\n    function setCurrentTime(uint newTime) public {\n        time = newTime;\n    }\n}",
  "sourcePath": "D:/projetos/projetos/bid token/contracts/TestAuction.sol",
  "compiler": {
    "name": "solc",
    "version": "0.8.3+commit.8d00100c.Emscripten.clang"
  },
  "schemaVersion": "3.3.4",
  "updatedAt": "2021-04-26T18:23:56.588Z",
  "devdoc": {
    "kind": "dev",
    "methods": {},
    "version": 1
  },
  "userdoc": {
    "kind": "user",
    "methods": {},
    "version": 1
  }
}